:020000040800F2
:1000000000280020891600080115000807150008BF
:100010000D15000813150008191500080000000050
:100020000000000000000000000000001F15000894
:100030002B150008000000003715000843150008C4
:10004000D1160008D1160008D1160008D1160008F4
:10005000D1160008D1160008D1160008D1160008E4
:10006000D1160008D1160008D1160008D1160008D4
:10007000D1160008D1160008D1160008D1160008C4
:10008000D1160008D1160008D1160008D1160008B4
:10009000D1160008D1160008D1160008D1160008A4
:1000A000D1160008D1160008D1160008D116000894
:1000B00051150008D116000800000000D1160008F4
:1000C000D11600080000000000000000D116000852
:1000D00000000000D1160008D11600080000000042
:1000E000D1160008D1160008D11600080000000043
:1000F0000000000000000000000000000000000000
:0C01000000000000000000005FF808F1A3
:10010C0010B5054C237833B9044B13B10448AFF345
:10011C0000800123237010BD580000200000000057
:10012C00282D000808B5034B1BB103490348AFF356
:10013C00008008BD000000005C000020282D000895
:10014C0080B500AF034B00221A6000F04DFA00BFDF
:10015C0080BD00BFA400002080B500AFB44B1B686D
:10016C00042B00F2B98101A252F823F08D01000892
:10017C0021020008D5020008890300086504000864
:10018C00002000F06BFB0346002B04D0A84B01228F
:10019C001A6000F063FA00F0CDFA0346002B04D18C
:1001AC00A34B04221A6000F0DDFA01F035FA034685
:1001BC00002B09D04FF47A7001F0D4F9002000F034
:1001CC0091F9012000F08EF901F036FA0346002B6C
:1001DC0000F07981322001F0DBF9964B1B68964ACE
:1001EC001268D2B20021184600F086FF914B5B6872
:1001FC00914A1268D2B20121184600F07DFF8E4B55
:10020C001B68002B0CBF01230023DBB21A468A4B60
:10021C001A6058E1002000F021FB0346002B04D0AB
:10022C00834B02221A6000F03DFA012000F016FB0D
:10023C000346002B0BD0814B1B6801337F4A1360A4
:10024C007E4B1B68632B02DD7C4B01221A60022063
:10025C0000F004FB0346002B03D0784B1B68784A54
:10026C00136001F0D9F90346002B0AD0FA2001F0F3
:10027C0079F90221002000F047FB0221012000F057
:10028C0043FB01F0D9F90346002B00F01E816B4BA8
:10029C001B686C4A1268D2B20021184600F02CFF81
:1002AC00634B1B68674A1268D2B20121184600F0F2
:1002BC0023FF644B1B68002B0CBF01230023DBB214
:1002CC001A46604B1A6000E1002000F0C7FA0346A2
:1002DC00002B04D0564B03221A6000F007FA0120C1
:1002EC0000F0BCFA0346002B0BD0544B1B680133B7
:1002FC00524A1360514B1B68632B02DD4F4B01229A
:10030C001A60022000F0AAFA0346002B03D04B4BD4
:10031C001B684D4A136001F07FF90346002B0AD08D
:10032C00FA2001F01FF90121002000F0EDFA012163
:10033C00012000F0E9FA01F07FF90346002B00F0F0
:10034C00C6803E4B1B68414A1268D2B20021184647
:10035C0000F0D2FE364B1B683C4A1268D2B2012127
:10036C00184600F0C9FE394B1B68002B0CBF01234B
:10037C000023DBB21A46354B1A60A8E0002000F0CF
:10038C006DFA0346002B04D0294B00221A6000F0B2
:10039C002BF9012000F062FA0346002B0BD0274BFF
:1003AC001B680133254A1360244B1B68632B02DD49
:1003BC00224B01221A60022000F050FA0346002B57
:1003CC0003D01E4B1B68224A136001F025F903462B
:1003DC00002B0AD0FA2001F0C5F80021002000F013
:1003EC0093FA0021012000F08FFA01F025F9034661
:1003FC00002B6ED0114B1B68164A1268D2B200212A
:10040C00184600F079FE0A4B1B68124A1268D2B2E9
:10041C000121184600F070FE0E4B1B68002B0CBF20
:10042C0001230023DBB21A460A4B1A6051E000BFCD
:10043C00A4000020B000002074000020B8000020B0
:10044C000000002078000020040000207C00002028
:10045C000800002080000020002000F0FFF9034677
:10046C00002B04D01D4B01221A6000F0F7F801F0AC
:10047C00D3F80346002B05D04FF47A7001F072F8D4
:10048C0000F08CF901F0D8F80346002B23D0322071
:10049C0001F07EF8124B1B68DBB21946002000F00D
:1004AC008FFE0F4B1B68DBB21946012000F088FE53
:1004BC000B4B1B68002B0CBF01230023DBB21A462D
:1004CC00074B1A6007E000BF06E000BF04E000BF66
:1004DC0002E000BF00E000BF00BF80BDA400002010
:1004EC008400002080B582B000AF78607B68002B60
:1004FC0066DB7B68012B63DC364A7B6852F8233061
:10050C005A1E34497B6841F82320334A7B6852F8E1
:10051C002330022B3AD0022B59DC002B02D0012BBA
:10052C001AD054E02B4A7B6852F82330002B49DC5C
:10053C002A4B1A6827497B6841F8232000217868E8
:10054C0000F0AAF90221786800F0C2F9224A7B680F
:10055C00022142F8231035E01E4A7B6852F8233002
:10056C00002B31DC1E4B1A681A497B6841F823209A
:10057C000221786800F090F90121786800F0A8F960
:10058C00154A7B68002142F823101DE0114A7B6854
:10059C0052F82330002B19DC124B1A680D497B687A
:1005AC0041F823200121786800F076F90021786861
:1005BC0000F08EF9084A7B68012142F8231005E00F
:1005CC0000BF04E000BF02E000BF00E000BF08373E
:1005DC00BD4680BDB0000020A8000020080000200F
:1005EC00000000200400002080B500AF4FF47A70AA
:1005FC0000F0B8FF322000F0CBFF144B1B68144AFC
:10060C001360144B00221A600221002000F044F900
:10061C000121002000F05CF90021002000F058F9C5
:10062C000D4B1B680A4A53600A4B02225A60022186
:10063C00012000F04DF90121012000F049F90021C1
:10064C00012000F029F900BF80BD00BF0000002090
:10065C00B0000020A80000200800002080B500AFEA
:10066C000F4B01221A60FA2000F07CFF02210020BF
:10067C0000F012F90121002000F02AF900210020DD
:10068C0000F026F90221012000F006F901210120D9
:10069C0000F01EF90021012000F01AF900BF80BD06
:1006AC00B800002080B500AF0F4B01221A60FA2071
:1006BC0000F058FF0221002000F00AF9012100206F
:1006CC0000F0EAF80021002000F002F902210120DC
:1006DC0000F0FEF80121012000F0DEF800210120DD
:1006EC0000F0F6F800BF80BDB800002080B500AF68
:1006FC000F4B01221A60FA2000F034FF0221002077
:10070C0000F0E6F80121002000F0E2F800210020C2
:10071C0000F0C2F80221012000F0DAF801210120DA
:10072C0000F0D6F80021012000F0B6F800BF80BD23
:10073C00B800002080B400AF074B1A68074B1B6849
:10074C001A44074B1B689A420CBF01230023DBB2EF
:10075C001846BD4680BC70470400002008000020ED
:10076C000000002080B500AF0221002000F0B0F89E
:10077C000121002000F0ACF80021002000F0A8F8C6
:10078C000221012000F0A4F80121012000F0A0F8C2
:10079C000021012000F09CF800BF80BD80B500AFA7
:1007AC000221002000F0B0F80121002000F0ACF88C
:1007BC000021002000F0A8F80221012000F0A4F88C
:1007CC000121012000F0A0F80021012000F09CF88C
:1007DC0000BF80BD90B583B000AF0023FB712AE051
:1007EC00FA79FB791849895C184AD154184B1A6864
:1007FC00FB79184931F81330FC791946104601F091
:10080C004DFA03461A46104B1A55FB790F4AD35C26
:10081C00012B09D1FB790C4AD35C002B04D1FB7959
:10082C000D4A0121D15403E0FB790B4A0021D1542C
:10083C00FB790133FB71FB79022BD1D900BF00BFCF
:10084C000C37BD4690BD00BF8C00002088000020F6
:10085C000C000020502D00089000002080B483B0C4
:10086C0000AF78607B68022B01DD00230DE0094AA4
:10087C007B6813441B78012B06D1064A7B68134412
:10088C0000221A70012300E0002318460C37BD46E5
:10089C0080BC70479000002080B582B000AF7860BB
:1008AC003960094B186809497A6813465B00134490
:1008BC003A68134431F813300022194601F005FA56
:1008CC0000BF0837BD4680BD10000020140000207A
:1008DC0080B582B000AF78603960094B186809495F
:1008EC007A6813465B0013443A68134431F81330AA
:1008FC000122194601F0E9F900BF0837BD4680BD59
:10090C00100000201400002080B582B000AF786089
:10091C003960094B186809497A6813465B0013441F
:10092C003A68134431F81330194601F0E6F900BF68
:10093C000837BD4680BD00BF100000201400002009
:10094C0090B583B000AF786039603B68002BC0F283
:10095C00CA833B68022B00F3C6837B68092B00F229
:10096C006D8301A252F823F09D090008470A000884
:10097C00F10A00089B0B00084D0C0008F70C00084E
:10098C00A10D00084B0E0008FD0E00089F0F00087B
:10099C00A94B1868A9493A681346DB009B1A5B00FF
:1009AC000B441988A54C3A681346DB009B1A5B0074
:1009BC00234402331B880B4399B2A04C3A6813466C
:1009CC00DB009B1A5B00234404331B880B4399B256
:1009DC009A4C3A681346DB009B1A5B00234406339F
:1009EC001B880B4399B2954C3A681346DB009B1A53
:1009FC005B00234408331B880B4399B28F4C3A6835
:100A0C001346DB009B1A5B0023440A331B880B4301
:100A1C009BB20022194601F058F9874B1868874998
:100A2C003A681346DB009B1A5B000B440C331B88A3
:100A3C000122194601F049F956E37F4B18687F49AA
:100A4C003A681346DB009B1A5B000B44023319888F
:100A5C007A4C3A681346DB009B1A5B002344043340
:100A6C001B880B439BB20022194601F02EF9724BE6
:100A7C00186872493A681346DB009B1A5B000B44FA
:100A8C0019886E4C3A681346DB009B1A5B002344B2
:100A9C0006331B880B4399B2684C3A681346DB004B
:100AAC009B1A5B00234408331B880B4399B2634C9D
:100ABC003A681346DB009B1A5B0023440A331B88FD
:100ACC000B4399B25D4C3A681346DB009B1A5B00F2
:100ADC0023440C331B880B439BB20122194601F0B3
:100AEC00F4F801E3544B186854493A681346DB0098
:100AFC009B1A5B000B441988504C3A681346DB0078
:100B0C009B1A5B00234402331B880B4399B24B4C5A
:100B1C003A681346DB009B1A5B00234406331B88A0
:100B2C000B4399B2454C3A681346DB009B1A5B00A9
:100B3C00234408331B880B4399B2404C3A68134644
:100B4C00DB009B1A5B0023440C331B880B439BB2CA
:100B5C000022194601F0B9F8374B186837493A6842
:100B6C001346DB009B1A5B000B4404331988334C8F
:100B7C003A681346DB009B1A5B0023440A331B883C
:100B8C000B439BB20122194601F09FF8ACE22A4BB1
:100B9C0018682A493A681346DB009B1A5B000B4421
:100BAC001988264C3A681346DB009B1A5B002344D9
:100BBC0002331B880B4399B2204C3A681346DB0076
:100BCC009B1A5B00234404331B880B4399B21B4CC8
:100BDC003A681346DB009B1A5B00234406331B88E0
:100BEC000B4399B2154C3A681346DB009B1A5B0019
:100BFC0023440C331B880B439BB20022194601F093
:100C0C0064F80D4B18680D493A681346DB009B1AC3
:100C1C005B000B4408331988084C3A681346DB0018
:100C2C009B1A5B0023440A331B880B439BB20122A3
:100C3C00194601F04AF857E2200000202400002059
:100C4C00A94B1868A9493A681346DB009B1A5B004C
:100C5C000B4402331988A54C3A681346DB009B1AE7
:100C6C005B00234404331B880B4399B29F4C3A68B6
:100C7C001346DB009B1A5B0023440A331B880B438F
:100C8C0099B29A4C3A681346DB009B1A5B002344DA
:100C9C000C331B880B439BB20022194601F015F84C
:100CAC00914B186891493A681346DB009B1A5B001C
:100CBC000B4419888D4C3A681346DB009B1A5B0079
:100CCC00234406331B880B4399B2884C3A6813466D
:100CDC00DB009B1A5B00234408331B880B439BB23D
:100CEC000122194600F0F1FFFEE17F4B18687F49A5
:100CFC003A681346DB009B1A5B000B4419887B4C4B
:100D0C003A681346DB009B1A5B00234404331B88B0
:100D1C000B4399B2754C3A681346DB009B1A5B0087
:100D2C00234406331B880B4399B2704C3A68134624
:100D3C00DB009B1A5B0023440A331B880B4399B2DC
:100D4C006A4C3A681346DB009B1A5B0023440C3355
:100D5C001B880B439BB20022194600F0B6FF624B76
:100D6C00186862493A681346DB009B1A5B000B4417
:100D7C00023319885D4C3A681346DB009B1A5B0002
:100D8C00234408331B880B439BB20122194600F005
:100D9C009CFFA9E1544B186854493A681346DB0090
:100DAC009B1A5B000B441988504C3A681346DB00C5
:100DBC009B1A5B00234404331B880B4399B24B4CA6
:100DCC003A681346DB009B1A5B00234406331B88EE
:100DDC000B4399B2454C3A681346DB009B1A5B00F7
:100DEC00234408331B880B4399B2404C3A68134692
:100DFC00DB009B1A5B0023440A331B880B4399B21C
:100E0C003A4C3A681346DB009B1A5B0023440C33C4
:100E1C001B880B439BB20022194600F056FF324B45
:100E2C00186832493A681346DB009B1A5B000B4486
:100E3C0002331B880122194600F047FF54E12A4B6C
:100E4C0018682A493A681346DB009B1A5B000B446E
:100E5C001988264C3A681346DB009B1A5B00234426
:100E6C0002331B880B4399B2204C3A681346DB00C3
:100E7C009B1A5B00234404331B880B439BB2002258
:100E8C00194600F022FF184B186818493A681346A7
:100E9C00DB009B1A5B000B4406331988134C3A6831
:100EAC001346DB009B1A5B00234408331B880B435F
:100EBC0099B20E4C3A681346DB009B1A5B00234434
:100ECC000A331B880B4399B2084C3A681346DB0073
:100EDC009B1A5B0023440C331B880B439BB20122EF
:100EEC00194600F0F2FEFFE0200000202400002054
:100EFC007F4B18687F493A681346DB009B1A5B00EE
:100F0C000B4419887B4C3A681346DB009B1A5B0038
:100F1C00234402331B880B4399B2764C3A68134630
:100F2C00DB009B1A5B00234404331B880B4399B2F0
:100F3C00704C3A681346DB009B1A5B002344063363
:100F4C001B880B4399B26B4C3A681346DB009B1A17
:100F5C005B00234408331B880B4399B2654C3A68F9
:100F6C001346DB009B1A5B0023440A331B880B439C
:100F7C0099B2604C3A681346DB009B1A5B00234421
:100F8C000C331B880B439BB20022194600F09DFECC
:100F9C00AAE0574B186857493A681346DB009B1A6E
:100FAC005B000B441988534C3A681346DB009B1AC0
:100FBC005B00234402331B880B4399B24D4C3A68B7
:100FCC001346DB009B1A5B00234404331B880B4342
:100FDC0099B2484C3A681346DB009B1A5B002344D9
:100FEC0006331B880B4399B2424C3A681346DB001C
:100FFC009B1A5B0023440A331B880B4399B23D4C6C
:10100C003A681346DB009B1A5B0023440C331B88A5
:10101C000B439BB20022194600F057FE344B186864
:10102C0034493A681346DB009B1A5B000B440833C7
:10103C001B880122194600F048FE55E02C4B18681D
:10104C002C493A681346DB009B1A5B000B44198849
:10105C00284C3A681346DB009B1A5B00234406338A
:10106C001B880B4399B2234C3A681346DB009B1A3E
:10107C005B00234408331B880B4399B21D4C3A6820
:10108C001346DB009B1A5B0023440A331B880B437B
:10109C0099B2184C3A681346DB009B1A5B00234448
:1010AC000C331B880B439BB20022194600F00DFE3B
:1010BC000F4B18680F493A681346DB009B1A5B000C
:1010CC000B44023319880B4C3A681346DB009B1A0D
:1010DC005B00234404331B880B439BB2012219464B
:1010EC0000F0F3FD00E000BF0C37BD4690BD00BF23
:1010FC00200000202400002080B584B000AFF860F0
:10110C00B9601346FB712A4B18682A4ABB6832F83F
:10111C0023202849BB689B000B445B8813439BB27C
:10112C000022194600F0D1FDFB68234A82FB031212
:10113C005111DA178A1A642101FB02F29B1AFB6027
:10114C00FB79002B16D0FB681C4A82FB0312921011
:10115C00DB17D31AB9681846FFF7F2FB144B186863
:10116C00144ABB689B0013445B880122194600F0AB
:10117C00ACFD18E0FA68114B83FB02139910D317DE
:10118C00C81A03469B0003445B00D01AB968FFF7EA
:10119C00D7FB074B1868074ABB6832F8233001228B
:1011AC00194600F092FD00BF1037BD4680BD00BF50
:1011BC0040000020440000201F85EB5167666666E6
:1011CC0080B582B000AF78600B46FB701A4B186884
:1011DC001A4A7B6832F8232018497B689B000B4421
:1011EC005B8813439BB20022194600F06EFDFB781E
:1011FC00002B0FD079680A20FFF7A2FB0E4B186862
:10120C000E4A7B689B0013445B880122194600F050
:10121C005CFD0DE079680A20FFF792FB064B18681D
:10122C00064A7B6832F823300122194600F04DFD46
:10123C0000BF0837BD4680BD4000002044000020A0
:10124C0080B500AF00F040FA00F00EF800F094F812
:10125C0000F046F8034801F0A1F9FEF771FFFEF724
:10126C007BFFFCE7BC00002080B590B000AF07F11D
:10127C00180328220021184601F048FD3B1D0022CE
:10128C001A605A609A60DA601A610223BB6101230A
:10129C00BB621023FB6200237B6307F11803184623
:1012AC0000F044FD0346002B01D000F0C7F80F23DB
:1012BC007B600023BB600023FB6000233B610023A9
:1012CC007B613B1D0021184600F0B0FF0346002B4C
:1012DC0001D000F0B3F800BF4037BD4680BD000020
:1012EC0080B586B000AF07F1080300221A605A607F
:1012FC009A60DA603B4600221A605A601D4B4FF030
:10130C0080421A601B4B41F63F725A60194B002207
:10131C009A60184B0922DA60164B00221A61154BA1
:10132C0000229A61134801F0E9F80346002B01D022
:10133C0000F084F84FF48053BB6007F108031946A2
:10134C000C4801F07FFA0346002B01D000F076F830
:10135C0000233B6000237B603B461946054801F0A7
:10136C0047FC0346002B01D000F068F800BF18378B
:10137C00BD4680BDBC00002080B586B000AF07F133
:10138C00080300221A605A609A60DA60284B9B6945
:10139C00274A43F004039361254B9B6903F0040334
:1013AC007B607B68224B9B69214A43F00803936165
:1013BC001F4B9B6903F008033B603B6800224FF214
:1013CC00F0311C4800F081FC002247F67F711A486E
:1013DC0000F07BFC0E23BB600023FB6000233B6111
:1013EC0007F108031946134800F0DEFA4FF2F03308
:1013FC00BB600123FB6000233B6102237B6107F18F
:10140C00080319460B4800F0CFFA47F67F73BB6010
:10141C000123FB6000233B6102237B6107F108037E
:10142C001946054800F0C0FA00BF1837BD4680BD0C
:10143C000010024000080140000C014080B400AFD5
:10144C0072B600BFFEE7000080B485B000AF154B4C
:10145C009B69144A43F001039361124B9B6903F09F
:10146C000103BB60BB680F4BDB690E4A43F0805332
:10147C00D3610C4BDB6903F080537B607B680A4BB8
:10148C005B68FB60FB6823F0E063FB60FB6843F088
:10149C008063FB60044AFB68536000BF1437BD4691
:1014AC0080BC7047001002400000014080B584B041
:1014BC0000AF78607B681B68B3F1804F13D10C4B85
:1014CC00DB690B4A43F00103D361094BDB6903F081
:1014DC000103FB60FB68002200211C2000F02DFAA8
:1014EC001C2000F046FA00BF1037BD4680BD00BF7F
:1014FC000010024080B400AFFEE780B400AFFEE7FE
:10150C0080B400AFFEE780B400AFFEE780B400AF5C
:10151C00FEE780B400AF00BFBD4680BC704780B40E
:10152C0000AF00BFBD4680BC704780B400AF00BFA9
:10153C00BD4680BC704780B500AF00F00BF900BF12
:10154C0080BD000080B500AF024801F073F800BF09
:10155C0080BD00BFBC00002080B400AF00BFBD4602
:10156C0080BC704780B483B000AF78600A227B687F
:10157C0093FBF2F3044A1360044B00221A6000BF81
:10158C000C37BD4680BC70479400002098000020AA
:10159C0080B483B000AF78600A227B6893FBF2F3CF
:1015AC00044A1360044B00221A6000BF0C37BD467E
:1015BC0080BC70479C000020A000002080B400AFCD
:1015CC00114B1B68002B0BDD0F4B1B68013B0E4AAC
:1015DC0013600D4B1B68002B02D10C4B01221A60BF
:1015EC000B4B1B68002B0BDD094B1B68013B084A9E
:1015FC001360074B1B68002B02D1064B01221A60AB
:10160C0000BFBD4680BC70479400002098000020AD
:10161C009C000020A000002080B400AF054B1B688C
:10162C00012B0CBF01230023DBB21846BD4680BC46
:10163C00704700BF9800002080B400AF054B1B68BA
:10164C00012B0CBF01230023DBB21846BD4680BC26
:10165C00704700BFA000002080B582B000AF78605A
:10166C007B681B68B3F1804F03D1FFF7A7FFFFF72F
:10167C00B1F800BF0837BD4680BD00000C480D49CD
:10168C000D4A002302E0D458C4500433C4188C42D1
:10169C00F9D30A4A0A4C002301E013600432A24237
:1016AC00FBD3FFF759FF01F00DFBFFF7C9FD7047A6
:1016BC000000002058000020702D00085800002069
:1016CC0008010020FEE7000080B500AF084B1B6846
:1016DC00074A43F010031360032000F023F90F2096
:1016EC0000F008F8FFF7B0FE0023184680BD00BFDD
:1016FC000020024080B582B000AF7860124B1A68AF
:10170C00124B1B7819464FF47A73B3FBF1F3B2FB0F
:10171C00F3F3184600F03BF90346002B01D00123EC
:10172C000EE07B680F2B0AD8002279684FF0FF304F
:10173C0000F003F9064A7B681360002300E00123E4
:10174C0018460837BD4680BD4C00002054000020D0
:10175C005000002080B400AF054B1B781A46054B97
:10176C001B681344034A136000BFBD4680BC70471E
:10177C00540000200401002080B400AF024B1B6811
:10178C001846BD4680BC70470401002080B485B06B
:10179C0000AF78607B6803F00703FB600C4BDB68E1
:1017AC00BB60BA684FF6FF031340BB60FB681A02BC
:1017BC00BB68134343F0BF6343F40033BB60044A7C
:1017CC00BB68D36000BF1437BD4680BC704700BFF8
:1017DC0000ED00E080B400AF044BDB681B0A03F0A3
:1017EC0007031846BD4680BC704700BF00ED00E003
:1017FC0080B483B000AF0346FB7197F90730002B20
:10180C000BDBFB7903F01F02064997F907305B09E4
:10181C00012000FA02F241F8232000BF0C37BD462C
:10182C0080BC704700E100E080B483B000AF034699
:10183C003960FB7197F90730002B0ADB3B68DAB291
:10184C000C4997F907301201D2B20B4483F80023EC
:10185C000AE03B68DAB20849FB7903F00F03043B5A
:10186C001201D2B20B441A7600BF0C37BD4680BCB5
:10187C00704700BF00E100E000ED00E080B489B0EB
:10188C0000AFF860B9607A60FB6803F00703FB6196
:10189C00FB69C3F10703042B28BF0423BB61FB695D
:1018AC000433062B02D9FB69033B00E000237B6168
:1018BC004FF0FF32BB6902FA03F3DA43BB681A40FC
:1018CC007B699A404FF0FF317B6901FA03F3D943EE
:1018DC007B680B40134318462437BD4680BC7047C9
:1018EC0080B582B000AF78607B68013BB3F1807F3C
:1018FC0001D301230FE00A4A7B68013B53600F219F
:10190C004FF0FF30FFF790FF054B00229A60044B1D
:10191C0007221A60002318460837BD4680BD00BF59
:10192C0010E000E080B582B000AF78607868FFF717
:10193C002DFF00BF0837BD4680BD80B586B000AF17
:10194C000346B9607A60FB7300237B61FFF742FFAB
:10195C0078617A68B9687869FFF790FF024697F961
:10196C000F3011461846FFF75FFF00BF1837BD4612
:10197C0080BD80B582B000AF0346FB7197F907308C
:10198C001846FFF735FF00BF0837BD4680BD80B550
:10199C0082B000AF78607868FFF7A2FF0346184664
:1019AC000837BD4680BD000080B48BB000AF7860B6
:1019BC00396000237B6200233B6248E101227B6A91
:1019CC0002FA03F3FB613B681B68FA691340BB61C5
:1019DC00BA69FB699A4240F037813B685B68A34A5D
:1019EC0093425ED0A14A934275D8A14A934258D0F3
:1019FC009F4A93426FD89F4A934252D09D4A93423A
:101A0C0069D89D4A93424CD09B4A934263D89B4AD7
:101A1C00934246D0994A93425DD8122B2AD8122B66
:101A2C0059D801A252F823F0AF1A0008891A0008FD
:101A3C009B1A0008DD1A0008E31A0008E31A0008D4
:101A4C00E31A0008E31A0008E31A0008E31A000876
:101A5C00E31A0008E31A0008E31A0008E31A000866
:101A6C00E31A0008E31A0008E31A0008911A0008A8
:101A7C00A51A0008824A934213D02CE03B68DB681D
:101A8C003B6229E03B68DB6804333B6224E03B6843
:101A9C00DB6808333B621FE03B68DB680C333B625E
:101AAC001AE03B689B68002B02D104233B6213E0D5
:101ABC003B689B68012B05D108233B627B68FA6964
:101ACC001A6109E008233B627B68FA695A6103E0FA
:101ADC0000233B6200E000BFBB69FF2B01D87B6891
:101AEC0001E07B6804337B61BB69FF2B02D87B6A06
:101AFC009B0002E07B6A083B9B003B617B691A6898
:101B0C000F213B6901FA03F3DB431A40396A3B6945
:101B1C0001FA03F31A437B691A603B685B6803F0B4
:101B2C008053002B00F09080564B9B69554A43F034
:101B3C0001039361534B9B6903F00103BB60BB68CA
:101B4C00514A7B6A9B08023352F82330FB607B6A54
:101B5C0003F003039B000F2202FA03F3DB43FA6842
:101B6C001340FB607B68494A93420DD07B68484A1E
:101B7C00934207D07B68474A934201D1022304E089
:101B8C00032302E0012300E000237A6A02F003023F
:101B9C0092009340FA681343FB603B497B6A9B08B5
:101BAC000233FA6841F823203B685B6803F4803306
:101BBC00002B06D0384B1A683749BB6913430B60AE
:101BCC0006E0354B1A68BB69DB43334913400B60A5
:101BDC003B685B6803F40033002B06D02E4B5A682D
:101BEC002D49BB6913434B6006E02B4B5A68BB690C
:101BFC00DB43294913404B603B685B6803F480135B
:101C0C00002B06D0244B9A682349BB6913438B6085
:101C1C0006E0214B9A68BB69DB431F4913408B607C
:101C2C003B685B6803F40013002B06D01A4BDA6890
:101C3C001949BB691343CB6006E0174BDA68BB69E3
:101C4C00DB4315491340CB607B6A01337B623B68F5
:101C5C001A687B6A22FA03F3002B7FF4AFAE00BF45
:101C6C0000BF2C37BD4680BC704700BF000032104F
:101C7C000000311000002210000021100000121092
:101C8C00000011100010024000000140000801404B
:101C9C00000C0140001001400004014080B485B0EC
:101CAC0000AF78600B467B807B689A687B8813401A
:101CBC00002B02D00123FB7301E00023FB73FB7BA1
:101CCC0018461437BD4680BC704780B483B000AF53
:101CDC0078600B467B8013467B707B78002B03D09F
:101CEC007A887B681A6103E07B881A047B681A6126
:101CFC0000BF0C37BD4680BC704780B485B000AFC8
:101D0C0078600B467B807B68DB68FB607A88FB68BD
:101D1C0013401A04FB68D9437B880B401A437B6839
:101D2C001A6100BF1437BD4680BC704780B586B0C1
:101D3C0000AF78607B68002B01D101236CE27B68DB
:101D4C001B6803F00103002B00F08780924B5B684B
:101D5C0003F00C03042B0CD08F4B5B6803F00C03CB
:101D6C00082B12D18C4B5B6803F48033B3F5803FA6
:101D7C000BD1894B1B6803F40033002B6CD07B68B0
:101D8C005B68002B68D1012346E27B685B68B3F586
:101D9C00803F06D1804B1B687F4A43F4803313602D
:101DAC002EE07B685B68002B0CD17B4B1B687A4A5E
:101DBC0023F480331360784B1B68774A23F4802319
:101DCC0013601DE07B685B68B3F5A02F0CD1724BE0
:101DDC001B68714A43F4802313606F4B1B686E4A77
:101DEC0043F4803313600BE06B4B1B686A4A23F49B
:101DFC0080331360684B1B68674A23F4802313609D
:101E0C007B685B68002B13D0FFF7B6FC386108E0E9
:101E1C00FFF7B2FC02463B69D31A642B01D90323AA
:101E2C00FAE15D4B1B6803F40033002BF0D014E097
:101E3C00FFF7A2FC386108E0FFF79EFC02463B6905
:101E4C00D31A642B01D90323E6E1534B1B6803F42B
:101E5C000033002BF0D100E000BF7B681B6803F05F
:101E6C000203002B63D04C4B5B6803F00C03002B7C
:101E7C000BD0494B5B6803F00C03082B1CD1464B71
:101E8C005B6803F48033002B16D1434B1B6803F0C3
:101E9C000203002B05D07B681B69012B01D00123A9
:101EAC00BAE13D4B1B6823F0F8027B685B69DB00F1
:101EBC00394913430B603AE07B681B69002B20D037
:101ECC00364B01221A60FFF757FC386108E0FFF728
:101EDC0053FC02463B69D31A022B01D903239BE125
:101EEC002D4B1B6803F00203002BF0D02A4B1B6810
:101EFC0023F0F8027B685B69DB00274913430B6016
:101F0C0015E0264B00221A60FFF736FC386108E01A
:101F1C00FFF732FC02463B69D31A022B01D903238B
:101F2C007AE11D4B1B6803F00203002BF0D17B6898
:101F3C001B6803F00803002B3AD07B689B69002BCD
:101F4C0019D0174B01221A60FFF716FC386108E014
:101F5C00FFF712FC02463B69D31A022B01D903236B
:101F6C005AE10D4B5B6A03F00203002BF0D0012009
:101F7C0000F0A6FA1CE00A4B00221A60FFF7FCFBEB
:101F8C0038610FE0FFF7F8FB02463B69D31A022BCE
:101F9C0008D9032340E100BF001002400000424278
:101FAC00800442429E4B5B6A03F00203002BE9D192
:101FBC007B681B6803F00403002B00F0A680002351
:101FCC00FB75974BDB6903F08053002B0DD1944BC1
:101FDC00DB69934A43F08053D361914BDB6903F087
:101FEC008053BB60BB680123FB758E4B1B6803F4ED
:101FFC008073002B18D18B4B1B688A4A43F4807377
:10200C001360FFF7B9FB386108E0FFF7B5FB024638
:10201C003B69D31A642B01D90323FDE0814B1B6868
:10202C0003F48073002BF0D07B68DB68012B06D1A6
:10203C007B4B1B6A7A4A43F0010313622DE07B68E9
:10204C00DB68002B0CD1764B1B6A754A23F001031D
:10205C001362734B1B6A724A23F0040313621CE075
:10206C007B68DB68052B0CD16D4B1B6A6C4A43F00B
:10207C00040313626A4B1B6A694A43F0010313623F
:10208C000BE0674B1B6A664A23F001031362644B37
:10209C001B6A634A23F0040313627B68DB68002B22
:1020AC0015D0FFF769FB38610AE0FFF765FB0246C4
:1020BC003B69D31A41F28832934201D90323ABE036
:1020CC00574B1B6A03F00203002BEED014E0FFF712
:1020DC0053FB38610AE0FFF74FFB02463B69D31A0A
:1020EC0041F28832934201D9032395E04C4B1B6A91
:1020FC0003F00203002BEED1FB7D012B05D1484BE5
:10210C00DB69474A23F08053D3617B68DB69002B82
:10211C0000F08180424B5B6803F00C03082B61D00C
:10212C007B68DB69022B46D13F4B00221A60FFF71C
:10213C0023FB386108E0FFF71FFB02463B69D31A0B
:10214C00022B01D9032367E0354B1B6803F00073A6
:10215C00002BF0D17B681B6AB3F5803F08D1304B64
:10216C005B6823F400327B689B682D4913434B60FA
:10217C002B4B5B6823F474127B68196A7B685B6A6F
:10218C000B43274913434B60274B01221A60FFF77F
:10219C00F3FA386108E0FFF7EFFA02463B69D31A0D
:1021AC00022B01D9032337E01D4B1B6803F000738E
:1021BC00002BF0D02FE01C4B00221A60FFF7DCFA4A
:1021CC00386108E0FFF7D8FA02463B69D31A022BB4
:1021DC0001D9032320E0124B1B6803F00073002B82
:1021EC00F0D118E07B68DB69012B01D1012313E0EE
:1021FC000B4B5B68FB60FB6803F480327B681B6AEB
:10220C009A4206D1FB6803F470127B685B6A9A42AF
:10221C0001D0012300E0002318461837BD4680BDCD
:10222C0000100240007000406000424280B584B053
:10223C0000AF786039607B68002B01D10123D0E0BE
:10224C006A4B1B6803F007033A689A4210D9674B34
:10225C001B6823F0070265493B6813430B60634B13
:10226C001B6803F007033A689A4201D00123B8E0D7
:10227C007B681B6803F00203002B20D07B681B6873
:10228C0003F00403002B05D0594B5B68584A43F408
:10229C00E06353607B681B6803F00803002B05D0D8
:1022AC00534B5B68524A43F460535360504B5B682A
:1022BC0023F0F0027B689B684D4913434B607B68AD
:1022CC001B6803F00103002B40D07B685B68012B7B
:1022DC0007D1474B1B6803F40033002B15D10123A6
:1022EC007FE07B685B68022B07D1414B1B6803F0D6
:1022FC000073002B09D1012373E03D4B1B6803F0E5
:10230C000203002B01D101236BE0394B5B6823F0F6
:10231C0003027B685B68364913434B60FFF72CFA6A
:10232C00F8600AE0FFF728FA0246FB68D31A41F27C
:10233C008832934201D9032353E02D4B5B6803F0A1
:10234C000C027B685B689B009A42EBD1274B1B68A5
:10235C0003F007033A689A4210D2244B1B6823F00F
:10236C00070222493B6813430B60204B1B6803F0A8
:10237C0007033A689A4201D0012332E07B681B685C
:10238C0003F00403002B08D0194B5B6823F4E062C4
:10239C007B68DB68164913434B607B681B6803F052
:1023AC000803002B09D0124B5B6823F460527B6846
:1023BC001B69DB000E4913434B6000F021F8024609
:1023CC000B4B5B681B0903F00F030A49CB5C22FA29
:1023DC0003F3094A1360094B1B681846FFF78AF987
:1023EC00002318461037BD4680BD00BF00200240B8
:1023FC0000100240582D00084C0000205000002016
:10240C0090B48AB000AF2A4B3C1D0FCB84E80F0070
:10241C0040F201233B800023FB610023BB610023BE
:10242C007B6200237B6100233B62224B5B68FB6178
:10243C00FB6903F00C03042B02D0082B03D02DE016
:10244C001D4B3B622DE0FB699B0C03F00F0307F166
:10245C002802134413F8243C7B61FB6903F480339A
:10246C00002B13D0134B5B685B0C03F0010307F1DB
:10247C002802134413F8283CBB617B690E4A02FB0B
:10248C0003F2BB69B2FBF3F37B6204E07B690B4A9A
:10249C0002FB03F37B627B6A3B6202E0064B3B620E
:1024AC0000BF3B6A18462837BD4690BC704700BF3A
:1024BC00402D00080010024000127A0000093D0077
:1024CC0080B485B000AF78600A4B1B680A4AA2FB47
:1024DC0003235B0A7A6802FB03F3FB6000BFFB6813
:1024EC005A1EFA60002BF9D100BF00BF1437BD464D
:1024FC0080BC70474C000020D34D621080B582B078
:10250C0000AF78607B68002B01D1012341E07B6830
:10251C0093F83D30DBB2002B06D17B68002283F8A8
:10252C003C207868FEF7C2FF7B68022283F83D20CE
:10253C007B681A687B6804331946104600F06AFA07
:10254C007B68012283F846207B68012283F83E20B9
:10255C007B68012283F83F207B68012283F84020AE
:10256C007B68012283F841207B68012283F842209A
:10257C007B68012283F843207B68012283F8442086
:10258C007B68012283F845207B68012283F83D207B
:10259C00002318460837BD4680BD000080B485B0C6
:1025AC0000AF78607B6893F83D30DBB2012B01D033
:1025BC00012335E07B68022283F83D207B681B6891
:1025CC00DA687B681B6842F00102DA607B681B6882
:1025DC00164A934209D07B681B68B3F1804F04D034
:1025EC007B681B68124A934211D17B681B689B68FD
:1025FC0003F00703FB60FB68062B10D07B681B689D
:10260C001A687B681B6842F001021A6007E07B685D
:10261C001B681A687B681B6842F001021A60002371
:10262C0018461437BD4680BC704700BF002C0140D3
:10263C000004004080B582B000AF78607B681B68F6
:10264C001B6903F00203022B22D17B681B68DB6839
:10265C0003F00203022B1BD17B681B686FF0020294
:10266C001A617B6801221A777B681B689B6903F0EF
:10267C000303002B03D0786800F0B1F905E078680B
:10268C0000F0A4F9786800F0B3F97B6800221A779F
:10269C007B681B681B6903F00403042B22D17B6845
:1026AC001B68DB6803F00403042B1BD17B681B68DD
:1026BC006FF004021A617B6802221A777B681B6830
:1026CC009B6903F44073002B03D0786800F087F902
:1026DC0005E0786800F07AF9786800F089F97B6891
:1026EC0000221A777B681B681B6903F00803082B10
:1026FC0022D17B681B68DB6803F00803082B1BD115
:10270C007B681B686FF008021A617B6804221A77D9
:10271C007B681B68DB6903F00303002B03D078682C
:10272C0000F05DF905E0786800F050F9786800F089
:10273C005FF97B6800221A777B681B681B6903F0C2
:10274C001003102B22D17B681B68DB6803F010038D
:10275C00102B1BD17B681B686FF010021A617B6811
:10276C0008221A777B681B68DB6903F44073002B23
:10277C0003D0786800F033F905E0786800F026F9AA
:10278C00786800F035F97B6800221A777B681B6843
:10279C001B6903F00103012B0ED17B681B68DB68FE
:1027AC0003F00103012B07D17B681B686FF001025A
:1027BC001A617868FEF750FF7B681B681B6903F091
:1027CC008003802B0ED17B681B68DB6803F08003D1
:1027DC00802B07D17B681B686FF080021A617868C8
:1027EC0000F067FA7B681B681B6903F04003402B01
:1027FC000ED17B681B68DB6803F04003402B07D1CC
:10280C007B681B686FF040021A61786800F0F9F879
:10281C007B681B681B6903F02003202B0ED17B689F
:10282C001B68DB6803F02003202B07D17B681B6837
:10283C006FF020021A61786800F032FA00BF083796
:10284C00BD4680BD80B584B000AF786039607B68D0
:10285C0093F83C30012B01D10223B3E07B680122B9
:10286C0083F83C207B68022283F83D207B681B6840
:10287C009B68FB60FB6823F07703FB60FB6823F429
:10288C007F43FB607B681B68FA689A603B681B6837
:10289C00B3F5005F3ED0B3F5005F00F28780B3F56F
:1028AC00805F00F08580B3F5805F7FD8702B1AD0E5
:1028BC00702B7BD8602B50D0602B77D8502B3CD012
:1028CC00502B73D8402B58D0402B6FD8302B64D062
:1028DC00302B6BD8202B60D0202B67D8002B5CD0F2
:1028EC00102B5AD062E07B6818683B6899683B688B
:1028FC005A683B68DB6800F05CF97B681B689B6876
:10290C00FB60FB6843F07703FB607B681B68FA682D
:10291C009A604EE07B6818683B6899683B685A6817
:10292C003B68DB6800F045F97B681B689A687B683C
:10293C001B6842F480429A603BE07B6818683B68F5
:10294C0059683B68DB681A4600F0BCF87B681B686A
:10295C005021184600F013F92BE07B6818683B688F
:10296C0059683B68DB681A4600F0DAF87B681B682C
:10297C006021184600F003F91BE07B6818683B687F
:10298C0059683B68DB681A4600F09CF87B681B684A
:10299C004021184600F0F3F80BE07B681A683B689E
:1029AC001B681946104600F0EAF802E000BF00E090
:1029BC0000BF7B68012283F83D207B68002283F8EE
:1029CC003C20002318461037BD4680BD80B483B030
:1029DC0000AF786000BF0C37BD4680BC704780B438
:1029EC0083B000AF786000BF0C37BD4680BC704729
:1029FC0080B483B000AF786000BF0C37BD4680BC9C
:102A0C00704780B483B000AF786000BF0C37BD4610
:102A1C0080BC704780B485B000AF786039607B684B
:102A2C001B68FB607B68254A934207D07B68B3F137
:102A3C00804F03D07B68224A934208D1FB6823F075
:102A4C007003FB603B685B68FA681343FB607B6850
:102A5C001A4A934207D07B68B3F1804F03D07B684E
:102A6C00174A934208D1FB6823F44073FB603B6820
:102A7C00DB68FA681343FB60FB6823F080023B6859
:102A8C005B691343FB607B68FA681A603B689A6861
:102A9C007B68DA623B681A687B689A627B68074AD3
:102AAC00934203D13B681A697B681A637B680122E5
:102ABC005A6100BF1437BD4680BC7047002C0140E2
:102ACC000004004080B487B000AFF860B9607A6051
:102ADC00FB681B6A7B61FB681B6A23F00102FB68C5
:102AEC001A62FB689B693B613B6923F0F0033B6115
:102AFC007B681B013A6913433B617B6923F00A0332
:102B0C007B617A69BB6813437B61FB683A699A61A4
:102B1C00FB687A691A6200BF1C37BD4680BC7047DF
:102B2C0080B487B000AFF860B9607A60FB681B6A4C
:102B3C0023F01002FB681A62FB689B697B61FB68DF
:102B4C001B6A3B617B6923F470437B617B681B03CD
:102B5C007A6913437B613B6923F0A0033B61BB683B
:102B6C001B013A6913433B61FB687A699A61FB6804
:102B7C003A691A6200BF1C37BD4680BC704780B4EE
:102B8C0085B000AF786039607B689B68FB60FB6840
:102B9C0023F07003FB603A68FB68134343F00703B0
:102BAC00FB607B68FA689A6000BF1437BD4680BC36
:102BBC00704780B487B000AFF860B9607A603B6052
:102BCC00FB689B687B617B6923F47F437B613B687B
:102BDC001A027B681A43BB6813437A6913437B61FF
:102BEC00FB687A699A6000BF1C37BD4680BC704791
:102BFC0080B485B000AF786039607B6893F83C3066
:102C0C00012B01D1022341E07B68012283F83C2097
:102C1C007B68022283F83D207B681B685B68FB6045
:102C2C007B681B689B68BB60FB6823F07003FB60D0
:102C3C003B681B68FA681343FB607B681B68FA6887
:102C4C005A607B681B68144A934209D07B681B68E6
:102C5C00B3F1804F04D07B681B68104A93420CD1AF
:102C6C00BB6823F08003BB603B685B68BA681343A6
:102C7C00BB607B681B68BA689A607B68012283F82A
:102C8C003D207B68002283F83C2000231846143733
:102C9C00BD4680BC704700BF002C014000040040C2
:102CAC0080B483B000AF786000BF0C37BD4680BCE9
:102CBC00704780B483B000AF786000BF0C37BD465E
:102CCC0080BC704770B500260C4D0D4C641BA410D5
:102CDC00A64209D100F022F800260A4D0A4C641BCA
:102CEC00A410A64205D170BD55F8043B9847013697
:102CFC00EEE755F8043B98470136F2E7682D0008DB
:102D0C00682D0008682D00086C2D0008034602444D
:102D1C00934200D1704703F8011BF9E7F8B500BFE7
:102D2C00F8BC08BC9E467047F8B500BFF8BC08BCA0
:042D3C009E467047F8
:102D400002030405060708090A0B0C0D0E0F1010EC
:102D50000200040008000000000000000000000065
:082D6000010203040607080943
:042D6800310100082D
:042D6C000D0100084D
:102D70000500000002000000030000000008014000
:102D80000008014010002000400080000001000207
:102D9000000C0140010002000400080010002000A7
:102DA0004000000100020004000800100020004064
:102DB0000008014000200010008000400024F400C2
:082DC0001000000001000000FA
:040000050800168950
:00000001FF
